:020000040800F2
:1000000000500020E91E0008DD1D0008E51D000865
:10001000ED1D0008F51D0008FD1D00080000000092
:10002000000000000000000000000000051E0008A5
:10003000111E0008000000001D1E0008291E0008F7
:10004000311F0008311F0008311F0008311F000850
:10005000311F0008311F0008311F0008311F000840
:10006000311F0008311F0008311F0008351E00082D
:10007000311F0008311F0008311F0008311F000820
:10008000311F0008311F0008491E0008311F0008F9
:10009000311F0008311F0008311F0008311F000800
:1000A000311F00085D1E0008311F0008311F0008C5
:1000B000311F0008311F0008311F0008311F0008E0
:1000C000311F0008311F0008311F0008311F0008D0
:1000D000311F0008311F0008311F0008311F0008C0
:1000E000311F0008311F0008311F00080000000008
:1000F0000000000000000000000000000000000000
:0C01000000000000000000005FF808F1A3
:1001100010B5054C237833B9044B13B10448AFF341
:1001200000800123237010BD60000020000000004B
:10013000D84D000808B5034B1BB103490348AFF382
:10014000008008BD0000000064000020D84D0008B9
:1001500070B54FF0FF0C4CF4E06C1CEA11541DBF5D
:100160001CEA135594EA0C0F95EA0C0F00F0DEF828
:100170002C4481EA030621EA4C5123EA4C5350EA0D
:10018000013518BF52EA033541F4801143F480135E
:1001900038D0A0FB02CE4FF00005E1FB02E506F0EF
:1001A0000042E0FB03E54FF00006E1FB03569CF044
:1001B000000F18BF4EF0010EA4F1FF04B6F5007F4A
:1001C00064F5407404D25FEA4E0E6D4146EB0606BC
:1001D00042EAC62141EA55514FEAC52040EA5E5045
:1001E0004FEACE2EB4F1FD0C88BFBCF5E06F1ED8EF
:1001F000BEF1004F08BF5FEA500E50F1000041EB26
:10020000045170BD06F0004646EA010140EA0200D2
:1002100081EA0301B4EB5C04C2BFD4EB0C0541EAF4
:10022000045170BD41F480114FF0000E013C00F309
:10023000AB8014F1360FDEBF002001F0004170BD2D
:10024000C4F10004203C35DA0C341BDC04F1140446
:10025000C4F1200500FA05F320FA04F001FA05F2D2
:1002600040EA020001F0004221F0004110EBD3709F
:1002700021FA04F642EB06015EEA430E08BF20EACB
:10028000D37070BDC4F10C04C4F1200500FA04F36E
:1002900020FA05F001FA04F240EA020001F0004100
:1002A00010EBD37041F100015EEA430E08BF20EA73
:1002B000D37070BDC4F1200500FA05F24EEA020EBB
:1002C00020FA04F301FA05F243EA020321FA04F0EA
:1002D00001F0004121FA04F220EA020000EBD370A1
:1002E0005EEA430E08BF20EAD37070BD94F0000FA1
:1002F0000FD101F00046400041EB010111F4801FD5
:1003000008BF013CF7D041EA060195F0000F18BF85
:10031000704703F00046520043EB030313F4801FC1
:1003200008BF013DF7D043EA0603704794EA0C0F7B
:100330000CEA135518BF95EA0C0F0CD050EA410691
:1003400018BF52EA4306D1D181EA030101F000410E
:100350004FF0000070BD50EA410606BF1046194636
:1003600052EA430619D094EA0C0F02D150EA013642
:1003700013D195EA0C0F05D152EA03361CBF104683
:1003800019460AD181EA030101F0004141F0FE4122
:1003900041F470014FF0000070BD41F0FE4141F4A6
:1003A000780170BD81F0004102E000BF83F000439E
:1003B00030B54FEA41044FEA430594EA050F08BF00
:1003C00090EA020F1FBF54EA000C55EA020C7FEAC4
:1003D000645C7FEA655C00F0E2804FEA5454D4EB41
:1003E0005555B8BF6D420CDD2C4480EA020281EA0B
:1003F000030382EA000083EA010180EA020281EA43
:100400000303362D88BF30BD11F0004F4FEA013194
:100410004FF4801C4CEA113102D0404261EB4101A3
:1004200013F0004F4FEA03334CEA133302D0524229
:1004300063EB430394EA050F00F0A780A4F10104E5
:10044000D5F1200E0DDB02FA0EFC22FA05F280181F
:1004500041F1000103FA0EF2801843FA05F3594105
:100460000EE0A5F120050EF1200E012A03FA0EFC84
:1004700028BF4CF0020C43FA05F3C01851EBE371AE
:1004800001F0004507D54FF0000EDCF1000C7EEBCB
:1004900000006EEB0101B1F5801F1BD3B1F5001F09
:1004A0000CD349085FEA30004FEA3C0C04F1010428
:1004B0004FEA445212F5800F80F09A80BCF1004F51
:1004C00008BF5FEA500C50F1000041EB045141EAD3
:1004D000050130BD5FEA4C0C404141EB0101013C9C
:1004E00028BFB1F5801FE9D291F0000F04BF01468B
:1004F0000020B1FA81F308BF2033A3F10B03B3F15D
:1005000020020CDA0C3208DD02F1140CC2F10C02EC
:1005100001FA0CF021FA02F10CE002F11402D8BF4A
:10052000C2F1200C01FA02F120FA0CFCDCBF41EA16
:100530000C019040E41AA2BF01EB0451294330BDE5
:100540006FEA04041F3C1CDA0C340EDC04F11404C2
:10055000C4F1200220FA04F001FA02F340EA030099
:1005600021FA04F345EA030130BDC4F10C04C4F1DF
:10057000200220FA02F001FA04F340EA03002946BF
:1005800030BD21FA04F0294630BD94F0000F83F409
:10059000801306BF81F480110134013D4EE77FEAEC
:1005A000645C18BF7FEA655C29D094EA050F08BF38
:1005B00090EA020F05D054EA000C04BF1946104619
:1005C00030BD91EA030F1EBF0021002030BD5FEA5D
:1005D000545C05D14000494128BF41F0004130BD85
:1005E00014F580043CBF01F5801130BD01F00045D9
:1005F00045F0FE4141F470014FF0000030BD7FEA4C
:10060000645C1ABF194610467FEA655C1CBF0B4646
:10061000024650EA013406BF52EA033591EA030F5D
:1006200041F4002130BD00BF90F0000F04BF002155
:10063000704730B54FF4806404F132044FF0000588
:100640004FF0000150E700BF90F0000F04BF002101
:10065000704730B54FF4806404F1320410F0004567
:1006600048BF40424FF000013EE700BF42004FEA62
:10067000E2014FEA31014FEA02701FBF12F07F43DF
:1006800093F07F4F81F06051704732F07F4208BF96
:10069000704793F07F4F04BF41F40021704730B59D
:1006A0004FF4607401F0004521F000411CE700BFE9
:1006B00050EA010208BF704730B54FF000050AE06C
:1006C00050EA010208BF704730B511F0004502D56D
:1006D000404261EB41014FF4806404F132045FEA6F
:1006E000915C3FF4D8AE4FF003025FEADC0C18BF18
:1006F00003325FEADC0C18BF033202EBDC02C2F10A
:10070000200300FA03FC20FA02F001FA03FE40EA9B
:100710000E0021FA02F11444BDE600BF4A0011D2D6
:1007200012F5001211D20DD56FF47873B3EB62524B
:100730000ED44FEAC12343F0004343EA505323FA57
:1007400002F070474FF00000704750EA013002D1CC
:100750004FF0FF3070474FF00000704780B582B017
:1007600000AF0346FB71FB7903F00803DBB21A46C6
:100770008021194802F0A7FDFB7903F00403DBB2E6
:100780001A464021144802F09EFDFB7903F0020353
:10079000DBB21A462021104802F095FDFB7903F0E8
:1007A0000103DBB21A4610210B4802F08CFD012236
:1007B0000821094802F087FD012001F01DFC0022FC
:1007C0000821054802F07FFD012001F015FC00BF63
:1007D0000837BD4680BD00BF0008014080B582B02B
:1007E00000AF0346FB71002202210A4802F06BFDB4
:1007F000FB791B09DBB21846FFF7B0FFFB7903F06A
:100800000F03DBB21846FFF7A9FF00BF0837BD464C
:1008100080BD00BF0008014080B500AF084B1B78C9
:1008200043F00403DAB2064B1A70054B1B7843F011
:100830000803DBB21846FFF7D1FF00BF80BD00BF41
:100840007C00002080B500AF0120FFF7C7FF032028
:1008500001F0D2FB00BF80BD80B582B000AF03467F
:100860000A46FB711346BB712D2001F0C5FB294AD6
:10087000BB79D370274AFB791371264B00225A713A
:10088000244B00229A71234B00225A70BB79012B12
:1008900006D9204B5B7843F00803DAB21D4B5A703F
:1008A0000320FFF75BFF042001F0A6FB0320FFF706
:1008B00055FF042001F0A0FB0320FFF74FFF0420A9
:1008C00001F09AFB0220FFF749FF042001F094FB9E
:1008D000104B5B7843F02003DBB21846FFF77EFF36
:1008E0000C4B04221A70FFF797FFFFF7ABFF094B81
:1008F00002229A70074B9B7843F00403DBB2184640
:10090000FFF76CFF042001F077FB00BF0837BD46FE
:1009100080BD00BF7C00002080B584B000AF0346DE
:100920000A46FB711346BB71114BFB60114BDB7820
:10093000BA799A4201D30023BB710E4AFB795371F5
:100940000C4ABB799371BB7910333B4413F8042CE8
:10095000FB791344DBB25BB263F07F035BB2DBB2C3
:100960001846FFF73BFF00BF1037BD4680BD00BFF4
:10097000004014547C00002080B582B000AF0346D4
:10098000FB71012202210A4802F09DFCFB791B0940
:10099000DBB21846FFF7E2FEFB7903F00F03DBB290
:1009A0001846FFF7DBFE00BF0837BD4680BD00BF1D
:1009B0000008014080B582B000AF03463A60FB7189
:1009C0000B46BB71BA79FB7911461846FFF7A4FFB5
:1009D00042E0264B5A79254B1B799A4210D3234B80
:1009E00000225A71214B9B790133DAB21F4B9A7165
:1009F0001E4B5B791D4A927911461846FFF78CFF12
:100A00003B681B780A2B0ED1184B9B790133DAB265
:100A1000164B9A71154B5B79144A92791146184618
:100A2000FFF77AFF15E03B681B780D2B06D10F4BC3
:100A30009B7919460020FFF76FFF0AE03B681B789F
:100A40001846FFF799FF094B5B790133DAB2074B80
:100A50005A713B6801333B603B681B78002BB8D16F
:100A600000BF00BF0837BD4680BD00BF7C0000202E
:100A700080B500AF084B1B7823F00203DAB2064BB7
:100A80001A70054B1B7843F00803DBB21846FFF7DA
:100A9000A5FE00BF80BD00BF7C00002080B584B0F3
:100AA00000AFF860B96011461A460B46FB8013464A
:100AB000BB80FB68BA681A60FB68BA889A80FB68DA
:100AC000FA88DA80FB683A8B5A81FB881946B86845
:100AD00002F0E2FB03461A46FB681A813B8B19467B
:100AE000B86802F0D9FB03461A46FB689A81FB6896
:100AF00000221A61FB6800225A6100BF1037BD4610
:100B000080BD90B583B000AF78607B681A687B6861
:100B1000DB881946104602F0BFFB03461A467B6885
:100B20001B899A4238D07B681A687B68DB88194633
:100B3000104602F0B1FB03461C467B681A687B68CE
:100B40009B881946104602F0A7FB03469C420BD136
:100B5000012001F051FA7B681B695A1C7B681A61FD
:100B60007B6800221A830AE0012001F045FA7B68C5
:100B70001B695A1E7B681A617B6801221A837B6895
:100B80001A687B68DB881946104602F085FB03462D
:100B90001A467B681A8102E07B6802221A837B680E
:100BA0001A687B685B891946104602F075FB03469C
:100BB0001A467B689B899A4217D0C82001F01CFA1C
:100BC0007B685B695A1C7B685A617B6803225A8385
:100BD0007B681A687B685B891946104602F05CFBEB
:100BE00003461A467B689A8102E07B6804225A8396
:100BF00000BF0C37BD4690BD80B483B000AF7860B5
:100C00007B681B6918460C37BD4680BC704780B4B2
:100C100083B000AF78607B685B6918460C37BD46CF
:100C200080BC704780B483B000AF786039607B6867
:100C30003A681A6100BF0C37BD4680BC704780B46B
:100C400083B000AF786039607B683A685A6100BF52
:100C50000C37BD4680BC704780B483B000AF78606D
:100C60007B681B8B18460C37BD4680BC704780B430
:100C700083B000AF78607B685B8B18460C37BD464D
:100C800080BC70470000000080B584B000AF786081
:100C90007B68254A93423ED10023FB810BE0FB8910
:100CA000224A52F82320224B1B681344204A136027
:100CB000FB890133FB81FB89632BF0D91C4B1B683B
:100CC0001C4AA2FB03235B09194A1360184B1B68DB
:100CD0001846FFF7A9FC12A3D3E90023FFF738FA5F
:100CE00002460B4610461946FFF718FD0346104A08
:100CF00013600F4B1B68642202FB03F30C4A136062
:100D00000B4B1A680C4BA3FB0213D21A5208134464
:100D1000DB0A074A136000BF1037BD4680BD00BF25
:100D20006666666666660A408400002070010020E0
:100D30006C0100201F85EB510101100080B582B0CD
:100D400000AF78608021334802F0A6FA0346002BFA
:100D50005CD1314B1B6801332F4A13602E4B1B684B
:100D60003B2B07DD2C4B00221A602C4B1B680133F8
:100D70002A4A1360294B1B683B2B07DD274B0022B7
:100D80001A60274B1B680133254A1360244B1B68EC
:100D9000172B0CDD234B1B680133224A1360224BB7
:100DA0001B680133204A13601D4B00221A601E4B42
:100DB0001B68072B02DD1C4B00221A60194B1B68B5
:100DC0001F2B0BDD194B1B68062B07DC154B002274
:100DD0001A60164B1B680133144A1360114B1B68D1
:100DE0001E2B0BDD114B1B68062B07DD0D4B002264
:100DF0001A600E4B1B6801330C4A13600B4B1B68C7
:100E00000C2B04DD094B00221A6000E000BF0837FC
:100E1000BD4680BD000C01400003002004030020FB
:100E200008030020100300201803002014030020F2
:100E300080B582B002AF00224FF400611C4802F07E
:100E400042FA002204211B4802F03DFA1A4B00220C
:100E50009A61194B00221A61174B00229A60164BB7
:100E600040F2E732DA60144B43F67F625A60124870
:100E700002F0D6FE0346002B01D000F0E1FE022175
:100E80001020FFF7E9FCFFF7F3FDFFF7DBFC102371
:100E900000932023402206490848FFF7FFFD642203
:100EA0000749084801F0A4F900BFBD4680BD00BF56
:100EB000000C014000080140F80000204001002023
:100EC000700100208400002080B500AF294B1A6813
:100ED000294B1B689A424AD1284B1A68284B1B6839
:100EE0009A4244D1274B1B68002B40D1FFF7AAFC44
:100EF00000212548FFF796FE00212348FFF79FFEBB
:100F0000224B01221A70224B1B685B6AB3F5FA7FF1
:100F100006D901224FF400611E4802F0D4F905E021
:100F200000224FF400611B4802F0CDF91648FFF78C
:100F3000E8FD194A00210020FFF73CFD1248FFF7A9
:100F400096FE0346032BDED1FFF77CFC00210E4802
:100F5000FFF768FE00210C48FFF771FE0B4B0022E3
:100F60001A7000224FF400610A4802F0ACF900BF89
:100F700080BD00BF080300200C03002004030020F4
:100F80000000002000030020400100201C0300207E
:100F9000F8000020000C0140F04D000880B500AFC3
:100FA0008021094802F078F90346002B02D0012B7A
:100FB00004D007E0054802F083FE03E0034802F096
:100FC000D1FE00BF00BF80BD000C0140F800002032
:100FD00080B500AF204B1B68062B3BD801A252F80E
:100FE00023F000BF011000080D10000819100008C0
:100FF00025100008311000083D10000849100008B5
:10100000164A01210A20FFF7D5FC23E0144A0121EA
:101010000A20FFF7CFFC1DE0124A01210A20FFF74A
:10102000C9FC17E0104A01210A20FFF7C3FC11E0B8
:101030000E4A01210A20FFF7BDFC0BE00C4A0121FA
:101040000A20FFF7B7FC05E00A4A01210A20FFF752
:10105000B1FC00BF00BF80BD18030020FC4D00089C
:10106000004E0008044E0008084E00080C4E000810
:10107000104E0008144E000880B500AF044B1B78DA
:10108000002B01D0FFF720FF01F083FD00BF80BDE2
:101090001C03002080B500AF5F4B1B6819465F48FA
:1010A000FFF7C0FD00215D48FFF7C9FDFFF7CAFB50
:1010B0005B4A00210020FFF77DFC4FF47A7000F0BE
:1010C0009BFFFFF7BFFB574B1B78002B01D0FFF7AF
:1010D000FBFE5248FFF715FD5048FFF7C8FD0346D9
:1010E000032B18D1FFF7AEFB4C48FFF790FD0346EA
:1010F000002B02D0012B07D00DE0474B1B6819468F
:101100004648FFF78FFD06E0474B1B6819464348EA
:10111000FFF788FD00BF4148FFF779FD0346022B2A
:101120005CD0022BCFD8002B02D0012B2BD070E04B
:10113000394B1B681A463D493D4803F09DF93C4A2E
:1011400000210020FFF736FC3448FFF755FD034629
:10115000B3F1FF3F04D117213048FFF763FD58E09A
:101160002E48FFF749FD0346172B04D900212B48D1
:10117000FFF758FD4DE02948FFF73EFD03461A46AC
:10118000254B1A6045E0284B1B681A462949284818
:1011900003F072F9264A00210020FFF70BFC1F48DC
:1011A000FFF72AFD0346B3F1FF3F04D13B211B4863
:1011B000FFF738FD2DE01948FFF71EFD03463B2BD6
:1011C00004D900211548FFF72DFD22E01348FFF751
:1011D00013FD03461A46144B1A601AE0FFF732FB60
:1011E000154A00210020FFF7E5FB144A01210020E9
:1011F000FFF7E0FB4FF47A7000F0FEFE0221074893
:10120000FFF710FD00210548FFF719FDFFF71AFB56
:1012100000E058E780BD00BF0C0300204001002023
:10122000184E00081C03002000000020204E00087B
:101230005C0100202C4E00083C4E00084C4E00087B
:1012400080B500AFA44B1B681946A448FFF7EAFC21
:101250000021A248FFF7F3FCFFF7F4FAA04A0021AF
:101260000020FFF7A7FB4FF47A7000F0C5FEFFF7F0
:10127000E9FA9C4B1B78002B01D0FFF725FE97481D
:10128000FFF73FFC9548FFF7F2FC0346032B23D101
:10129000FFF7D8FA9148FFF7BAFC0346022B14D0A7
:1012A000022B19D8002B02D0012B07D014E08A4B57
:1012B0001B6819468948FFF7B5FC0DE08A4B1B688F
:1012C00019468648FFF7AEFC06E0884B1B681946B6
:1012D0008248FFF7A7FC00BF8048FFF798FC034651
:1012E000032BC6D801A252F823F000BFFD1200085C
:1012F00053130008A91300089F140008764B1B68BD
:101300001A467B497B4803F0B7F87A4A002100204F
:10131000FFF750FB7148FFF76FFC0346B3F1FF3F47
:1013200004D10C216D48FFF77DFCD3E06B48FFF73B
:1013300063FC03460C2B04D900216848FFF772FCBC
:10134000C8E06648FFF758FC03461A46624B1A602D
:10135000C0E0654B1B681A466749664803F08CF885
:10136000644A00210020FFF725FB5C48FFF744FC9E
:101370000346B3F1FF3F04D11F215848FFF752FC49
:10138000A8E05648FFF738FC03461F2B04D900217C
:101390005248FFF747FC9DE05048FFF72DFC0346FD
:1013A0001A46514B1A6095E0504B1B68062B57D8D4
:1013B00001A252F823F000BFD5130008E91300087A
:1013C000FD13000811140008251400083914000842
:1013D0004D1400084949474803F04EF8454A00219A
:1013E0000020FFF7E7FA3BE04549424803F044F8A4
:1013F000404A00210020FFF7DDFA31E041493D4835
:1014000003F03AF83B4A00210020FFF7D3FA27E027
:101410003D49384803F030F8364A00210020FFF7F4
:10142000C9FA1DE03949334803F026F8314A002152
:101430000020FFF7BFFA13E035492E4803F01CF8EF
:101440002C4A00210020FFF7B5FA09E0314929486C
:1014500003F012F8274A00210020FFF7ABFA00BF83
:101460001E48FFF7C9FB0346B3F1FF3F04D1062135
:101470001A48FFF7D7FB2DE01848FFF7BDFB0346DE
:10148000062B04D900211548FFF7CCFB22E01348B6
:10149000FFF7B2FB03461A46144B1A601AE0FFF737
:1014A000D1F91D4A00210020FFF784FA1B4A0121CF
:1014B0000020FFF77FFA4FF47A7000F09DFD0121C4
:1014C0000648FFF7AFFB00210448FFF7B8FBFFF722
:1014D000B9F900E0CDE680BD1403002040010020F2
:1014E000544E00081C0300201003002018030020A5
:1014F0005C4E00085C0100206C4E0008784E00082D
:10150000884E0008984E0008A84E0008B84E000803
:10151000C84E0008D84E0008E84E00084C4E00089F
:1015200080B500AF7C4B1B6819467C48FFF77AFBFF
:1015300000217A48FFF783FBFFF784F9784A0021FE
:101540000020FFF737FA4FF47A7000F055FDFFF7EF
:1015500079F9744B1B78002B01D0FFF7B5FC6F486D
:10156000FFF7CFFA6D48FFF782FB0346032B23D129
:10157000FFF768F96948FFF74AFB0346022B14D0CE
:10158000022B19D8002B02D0012B07D014E0624B9C
:101590001B6819466148FFF745FB0DE0624B1B686D
:1015A00019465E48FFF73EFB06E0604B1B68194694
:1015B0005A48FFF737FB00BF5848FFF728FB0346A0
:1015C000032BC6D801A252F823F000BFDD15000896
:1015D0003316000889160008DF1600084E4B1B68FA
:1015E0001A465349534802F047FF524A002100204F
:1015F000FFF7E0F94948FFF7FFFA0346B3F1FF3F71
:1016000004D117214548FFF70DFB83E04348FFF75E
:10161000F3FA0346172B04D900214048FFF702FBD9
:1016200078E03E48FFF7E8FA03461A463A4B1A605C
:1016300070E03D4B1B681A463F493E4802F01CFFD4
:101640003C4A00210020FFF7B5F93448FFF7D4FAEF
:101650000346B3F1FF3F04D13B213048FFF7E2FAE4
:1016600058E02E48FFF7C8FA03463B2B04D9002167
:101670002A48FFF7D7FA4DE02848FFF7BDFA03469E
:101680001A46294B1A6045E0284B1B681A462B491D
:10169000284802F0F1FE274A00210020FFF78AF9CE
:1016A0001E48FFF7A9FA0346B3F1FF3F04D13B21DF
:1016B0001A48FFF7B7FA2DE01848FFF79DFA0346DE
:1016C0003B2B04D900211548FFF7ACFA22E0134860
:1016D000FFF792FA03461A46144B1A601AE0FFF716
:1016E000B1F8174A00210020FFF764F9154A0121DB
:1016F0000020FFF75FF94FF47A7000F07DFC0021C5
:101700000648FFF78FFA00210448FFF798FAFFF721
:1017100099F800E01DE780BD08030020400100208B
:10172000F84E00081C0300200403002000030020E2
:10173000204E00085C0100202C4E0008004F0008DD
:10174000104F00084C4E000880B500AFFFF77AF844
:1017500000214548FFF773FA4348FFF7D2F94248A2
:10176000FFF77AFA0346022B01D0FFF76BF83E48E9
:10177000FFF742FA0346052B10D8052BECD801A23F
:1017800052F823F0AD170008C9170008E517000844
:10179000011800081D18000845180008B3F1FF3FA4
:1017A000DAD104213048FFF73DFA5AE02F4A0021F0
:1017B0000020FFF7FFF82C48FFF759FA0346032BE8
:1017C00045D1FFF7ADFE42E0294A00210020FFF796
:1017D000F1F82548FFF74BFA0346032B39D1FFF701
:1017E0002FFD36E0234A00210020FFF7E3F81E48D2
:1017F000FFF73DFA0346032B2DD1FFF74BFC2AE000
:101800001D4A00210020FFF7D5F81748FFF72FFAEF
:101810000346032B21D1FFF72FFC1EE0174A0021BE
:101820000020FFF7C7F81048FFF721FA0346032B03
:1018300015D100210C48FFF7F5F900210A48FFF700
:10184000FEF90FE000210848FFF7ECF909E000BFBE
:1018500082E700BF80E700BF7EE700BF7CE700BFF4
:101860007AE779E780BD00BF40010020104F0008F3
:10187000E84E00083C4E0008204F0008304F00089A
:1018800080B582B002AF1B48FFF7F1F90346032B86
:1018900001D1FFF759FF184B1A68184B1968184BFC
:1018A0001B6800930B461749174802F0E5FD164ADE
:1018B00000210020FFF77EF8144B1A68DF2314493B
:1018C000114802F0D9FD104A00210A20FFF772F8F2
:1018D000104B1A68104B1B6810490B4802F0CCFDE6
:1018E000094A01210020FFF765F8FFF771FB00BFEF
:1018F000BD4680BD400100200803002004030020F5
:1019000000030020384F00085C0100206C0100201B
:10191000484F00081403002010030020504F000817
:1019200080B500AF00F006FB00F018F800F01CF9DD
:1019300000F0FCF800F0AAF800F06AF8FFF778FA77
:10194000FFF7C2FA0448FFF7DCF8FFF727FBFFF7C1
:1019500097FF00BFF4E700BF4001002080B594B0BE
:1019600000AF07F1280328220021184602F0A4FD49
:1019700007F1140300221A605A609A60DA601A6153
:101980003B1D00221A605A609A60DA600123BB6234
:101990004FF48033FB6200233B630123BB630223CC
:1019A0007B644FF48033BB644FF40023FB6407F186
:1019B0002803184601F0A0FC0346002B01D000F0DC
:1019C0003FF90F237B610223BB618023FB6100236E
:1019D0003B6200237B6207F114030121184601F0EA
:1019E0000DFF0346002B01D000F02AF902237B6093
:1019F0000023FB603B1D184602F05CF80346002BF9
:101A000001D000F01DF900BF5037BD4680BD000079
:101A100080B584B000AF3B1D00221A605A609A6006
:101A2000184B194A1A60174B00229A60154B012275
:101A30001A73144B00221A75124B4FF46022DA61AC
:101A4000104B00225A600F4B01221A610D4800F022
:101A5000F7FA0346002B01D000F0F2F800237B6078
:101A60000123BB600423FB603B1D1946054800F0C1
:101A700077FD0346002B01D000F0E2F800BF1037DD
:101A8000BD4680BD840000200024014080B586B0A2
:101A900000AF07F1080300221A605A609A60DA600A
:101AA0003B4600221A605A601E4B1F4A1A601D4BAB
:101AB00000225A601B4B00229A601A4B4FF6FF72AD
:101AC000DA60184B00221A61164B00225A61154B3E
:101AD00000229A61134802F0A3F80346002B01D0BC
:101AE00000F0AEF84FF48053BB6007F108031946CD
:101AF0000C4802F06DFA0346002B01D000F0A0F86C
:101B000000233B6000237B603B461946054802F0FA
:101B100043FC0346002B01D000F092F800BF1837B9
:101B2000BD4680BDF8000020002C014080B582B089
:101B300000AF0C4B5B690B4A43F001035361094B47
:101B40005B6903F001037B607B68002200210B20AE
:101B500000F0F5FF0B2001F00EF800BF0837BD467E
:101B600080BD00BF0010024080B588B000AF07F113
:101B7000100300221A605A609A60DA602D4B9B694C
:101B80002C4A43F0200393612A4B9B6903F0200306
:101B9000FB60FB68274B9B69264A43F00403936173
:101BA000244B9B6903F00403BB60BB68214B9B691A
:101BB000204A43F0080393611E4B9B6903F008031E
:101BC0007B607B680022FE211B4801F07CFB002229
:101BD0004FF40061194801F076FBFE233B610123BD
:101BE0007B610023BB610223FB6107F110031946EF
:101BF000114801F0CDF94FF400633B6101237B6193
:101C00000023BB610223FB6107F1100319460B4857
:101C100001F0BEF9F0233B6100237B610123BB612E
:101C200007F110031946054801F0B2F900BF20374B
:101C3000BD4680BD0010024000080140000C01407C
:101C400080B400AF72B600BF00BFFDE780B485B0BE
:101C500000AF154B9B69144A43F001039361124B8B
:101C60009B6903F00103BB60BB680F4BDB690E4A45
:101C700043F08053D3610C4BDB6903F080537B60EE
:101C80007B680A4B5B68FB60FB6823F0E063FB60EA
:101C9000FB6843F00073FB60044AFB68536000BFBD
:101CA0001437BD4680BC7047001002400000014060
:101CB00080B588B000AF786007F1100300221A6089
:101CC0005A609A60DA607B681B682C4A934251D153
:101CD0002B4B9B692A4A43F400739361284B9B6901
:101CE00003F40073FB60FB68254B9B69244A43F0B7
:101CF00004039361224B9B6903F00403BB60BB6840
:101D000001233B6103237B6107F1100319461D4842
:101D100001F03EF91C4B1D4A1A601B4B00225A6011
:101D2000194B00229A60184B8022DA60164B4FF450
:101D300000721A61144B4FF400625A61124B202258
:101D40009A61114B0022DA610F4800F033FF03461D
:101D5000002B01D0FFF774FF7B680B4A1A620A4A16
:101D60007B68536200220021122000F0E8FE12205E
:101D700000F001FF00BF2037BD4680BD00240140B8
:101D80000010024000080140B4000020080002409A
:101D900080B584B000AF78607B681B680D4A9342C1
:101DA00013D10D4B9B690C4A43F4006393610A4BBA
:101DB0009B6903F40063FB60FB680022002119208B
:101DC00000F0BDFE192000F0D6FE00BF1037BD4662
:101DD00080BD00BF002C01400010024080B400AF65
:101DE00000BFFDE780B400AF00BFFDE780B400AFE7
:101DF00000BFFDE780B400AF00BFFDE780B400AFD7
:101E000000BFFDE780B400AF00BFBD4680BC704797
:101E100080B400AF00BFBD4680BC704780B400AF47
:101E200000BFBD4680BC704780B500AF00F0C8F869
:101E300000BF80BD80B500AF024800F075FF00BF55
:101E400080BD00BFB400002080B500AF024800F0A4
:101E5000ADFA00BF80BD00BF8400002080B500AF98
:101E6000024801F0ADFF00BF80BD00BFF8000020B8
:101E700080B586B000AF7860144A154BD31A7B61E9
:101E80007B693B61134B1B68002B02D1114B124A3B
:101E90001A60104B1A687B6813443A699A4207D259
:101EA00002F012FB03460C221A604FF0FF3309E0E8
:101EB000084B1B68FB60074B1A687B681344054A94
:101EC0001360FB6818461837BD4680BD00500020DF
:101ED00000040000200300207004002080B400AF44
:101EE00000BFBD4680BC7047FFF7F8FF0B480C49A8
:101EF0000C4A002302E0D458C4500433C4188C4266
:101F0000F9D3094A094C002301E013600432A242CC
:101F1000FBD302F0DFFAFFF703FD7047000000205B
:101F200060000020BC4F000860000020700400200A
:101F3000FEE7000080B500AF084B1B68074A43F07E
:101F400010031360032000F0EFFD0F2000F008F8ED
:101F5000FFF77CFE0023184680BD00BF0020024032
:101F600080B582B000AF7860124B1A68124B1B78B4
:101F700019464FF47A73B3FBF1F3B2FBF3F318464F
:101F800000F00BFE0346002B01D001230EE07B681E
:101F90000F2B0AD8002279684FF0FF3000F0CFFDF8
:101FA000064A7B681360002300E0012318460837C7
:101FB000BD4680BD040000200C0000200800002069
:101FC00080B400AF054B1B781A46054B1B681344C1
:101FD000034A136000BFBD4680BC70470C00002060
:101FE0002403002080B400AF024B1B681846BD4696
:101FF00080BC70472403002080B584B000AF7860B7
:10200000FFF7F0FFB8607B68FB60FB68B3F1FF3F50
:1020100005D00A4B1B781A46FB681344FB6000BFCF
:10202000FFF7E0FF0246BB68D31AFA689A42F7D876
:1020300000BF00BF1037BD4680BD00BF0C000020B0
:1020400080B586B000AF78600023FB7500233B614C
:102050000023BB600023FB607B68002B01D10123C0
:10206000BEE07B689B68002B7B689B6A002B09D1D4
:102070007B680022DA627B68002283F8242078687B
:10208000FFF716FE786800F0BDFB0346FB757B6822
:102090009B6A03F01003002B40F09980FB7D002B1E
:1020A00040F095807B689B6A23F4885323F00203F9
:1020B00043F002027B689A627B685A687B68DB693E
:1020C0001A437B681B7B5B001343BA681343BB60F6
:1020D0007B689B68B3F5807F03D07B689B68012B8E
:1020E00002D14FF4807300E000233A6913433B614F
:1020F0007B681B7D012B19D17B681B7B002B09D1D1
:102100007B689B69013B5A033B69134343F40063BB
:102110003B610BE07B689B6A43F020027B689A621C
:102120007B68DB6A43F001027B68DA627B681B68CC
:102130005B6823F469417B681B683A690A435A600B
:102140007B681B689A68284B13407A681268B968E4
:102150000B4393607B689B68B3F5807F03D07B68FB
:102160009B68012B04D17B681B69013B1B05FB604D
:102170007B681B68DB6A23F470017B681B68FA6864
:102180000A43DA627B681B689A68184B1340BA6886
:102190009A420BD17B680022DA627B689B6A23F04B
:1021A000030343F001027B689A6218E07B689B6A34
:1021B00023F0120343F010027B689A627B68DB6AAB
:1021C00043F001027B68DA620123FB7507E07B685C
:1021D0009B6A43F010027B689A620123FB75FB7DCA
:1021E00018461837BD4680BDFDF7E1FFFE0E1FFF04
:1021F00080B586B000AFF860B9607A600023FB75E7
:10220000FB681B68644A934204D0FB681B68634AFE
:10221000934206D1604B5B6803F47023002B40F0BF
:10222000B380FB6893F82430012B01D10223AEE088
:10223000FB68012283F82420F86800F089FA03463D
:10224000FB75FB7D002B40F09A80FB689B6A23F4B2
:10225000706323F0010343F48072FB689A62FB68A9
:102260001B684E4A934205D14B4B5B6803F47023C5
:10227000002B15D1FB689B6A23F48012FB689A62DD
:10228000FB681B685B6803F48063002B26D0FB6847
:102290009B6A23F4405343F48052FB689A621DE02A
:1022A000FB689B6A43F48012FB689A62FB681B68B8
:1022B000394A934204D0FB681B68384A93420DD1D7
:1022C000354B5B6803F48063002B07D0FB689B6A87
:1022D00023F4405343F48052FB689A62FB689B6A84
:1022E00003F48053002B06D0FB68DB6A23F0060260
:1022F000FB68DA6202E0FB680022DA62FB68002217
:1023000083F82420FB681B6A254A9A62FB681B6AD3
:10231000244ADA62FB681B6A234A1A63FB681B685B
:102320006FF002021A60FB681B689A68FB681B6802
:1023300042F480729A60FB68186AFB681B684C3331
:102340001946BA687B6800F08FFCFB681B689B68C5
:1023500003F46023B3F5602F08D1FB681B689A680B
:10236000FB681B6842F4A0029A600FE0FB681B68E0
:102370009A68FB681B6842F480129A6006E0FB686A
:10238000002283F8242001E00123FB75FB7D184621
:102390001837BD4680BD00BF002401400028014021
:1023A00087280008032900081F29000880B584B089
:1023B00000AF78607B681B681B68FB607B681B68EC
:1023C0005B68BB60BB6803F02003002B3ED0FB685A
:1023D00003F00203002B39D07B689B6A03F01003E3
:1023E000002B05D17B689B6A43F400727B689A627C
:1023F0007B681B689B6803F46023B3F5602F1DD1D5
:102400007B681B7B002B19D17B681B685A687B6833
:102410001B6822F020025A607B689B6A23F480725A
:102420007B689A627B689B6A03F48053002B05D11A
:102430007B689B6A43F001027B689A627868FEF7CA
:1024400023FC7B681B686FF012021A60BB6803F004
:102450008003002B4DD0FB6803F00403002B48D011
:102460007B689B6A03F01003002B05D17B689B6A95
:1024700043F400527B689A627B681B689B6803F494
:10248000E043B3F5E04F12D07B681B685B6803F450
:102490008063002B25D17B681B689B6803F4602355
:1024A000B3F5602F1DD17B681B7B002B19D17B6896
:1024B0001B685A687B681B6822F080025A607B6840
:1024C0009B6A23F480527B689A627B689B6A03F460
:1024D0008073002B05D17B689B6A43F001027B6807
:1024E0009A62786800F035FA7B681B686FF00C021E
:1024F0001A60BB6803F04003002B12D0FB6803F0A6
:102500000103002B0DD07B689B6A43F480327B680B
:102510009A62786800F012F87B681B686FF001021D
:102520001A6000BF1037BD4680BD80B483B000AFD5
:10253000786000BF0C37BD4680BC704780B483B064
:1025400000AF786000BF0C37BD4680BC704780B4D8
:1025500083B000AF786000BF0C37BD4680BC7047C9
:1025600080B485B000AF786039600023FB7300232E
:10257000BB607B6893F82430012B01D10223DCE09F
:102580007B68012283F824203B685B68062B1CD8FB
:102590007B681B68596B3B685A6813469B00134461
:1025A000053B1F2202FA03F3DB4319403B6818681E
:1025B0003B685A6813469B001344053B00FA03F23C
:1025C0007B681B680A435A633CE03B685B680C2BE2
:1025D0001CD87B681B68196B3B685A6813469B00C4
:1025E0001344233B1F2202FA03F3DB4319403B68E9
:1025F00018683B685A6813469B001344233B00FA53
:1026000003F27B681B680A431A631BE07B681B6844
:10261000D96A3B685A6813469B001344413B1F220A
:1026200002FA03F3DB4319403B6818683B685A68B9
:1026300013469B001344413B00FA03F27B681B687E
:102640000A43DA623B681B68092B1CD97B681B684C
:10265000D9683B681A6813465B0013441E3B072287
:1026600002FA03F3DB4319403B6898683B681A6839
:1026700013465B0013441E3B00FA03F27B681B68A1
:102680000A43DA6019E07B681B6819693B681A68BD
:1026900013465B001344072202FA03F3DB4319409D
:1026A0003B6898683B681A6813465B00134400FA5D
:1026B00003F27B681B680A431A613B681B68102B96
:1026C00003D03B681B68112B32D17B681B681D4A05
:1026D000934225D17B681B689B6803F40003002BA1
:1026E00026D17B681B689A687B681B6842F40002ED
:1026F0009A603B681B68102B1AD1134B1B68134A56
:10270000A2FB03239A0C13469B0013445B00BB609F
:1027100002E0BB68013BBB60BB68002BF9D107E05E
:102720007B689B6A43F020027B689A620123FB73FB
:102730007B68002283F82420FB7B18461437BD46B3
:1027400080BC7047002401400400002083DE1B434E
:1027500080B584B000AF78600023FB600023BB60CD
:102760007B681B689B6803F00103012B40D07B68EA
:102770001B689A687B681B6842F001029A601F4BD5
:102780001B681F4AA2FB03239B0CBB6002E0BB68D3
:10279000013BBB60BB68002BF9D1FFF723FCF8605D
:1027A0001FE0FFF71FFC0246FB68D31A022B18D963
:1027B0007B681B689B6803F00103012B11D07B68C9
:1027C0009B6A43F010027B689A627B68DB6A43F085
:1027D00001027B68DA627B68002283F824200123EF
:1027E00007E07B681B689B6803F00103012BD8D1CD
:1027F000002318461037BD4680BD00BF04000020EE
:1028000083DE1B4380B584B000AF78600023FB609B
:102810007B681B689B6803F00103012B2ED17B684A
:102820001B689A687B681B6822F001029A60FFF7B8
:10283000D9FBF8601BE0FFF7D5FB0246FB68D31A13
:10284000022B14D97B681B689B6803F00103012BE2
:102850000DD17B689B6A43F010027B689A627B68AB
:10286000DB6A43F001027B68DA62012307E07B68E0
:102870001B689B6803F00103012BDCD00023184682
:102880001037BD4680BD80B584B000AF78607B68EE
:102890005B6AFB60FB689B6A03F05003002B27D147
:1028A000FB689B6A43F40072FB689A62FB681B68D2
:1028B0009B6803F46023B3F5602F15D1FB681B7B85
:1028C000002B11D1FB689B6A23F48072FB689A622B
:1028D000FB689B6A03F48053002B05D1FB689B6A5D
:1028E00043F00102FB689A62F868FEF7CDF904E054
:1028F000FB681B6A1B6B7868984700BF1037BD46A2
:1029000080BD80B584B000AF78607B685B6AFB6097
:10291000F868FFF70AFE00BF1037BD4680BD80B5DE
:1029200084B000AF78607B685B6AFB60FB689B6A81
:1029300043F04002FB689A62FB68DB6A43F00402E2
:10294000FB68DA62F868FFF702FE00BF1037BD4689
:1029500080BD80B483B000AF786000BF0C37BD4647
:1029600080BC704780B485B000AF78607B6803F0AE
:102970000703FB600C4BDB68BB60BA684FF6FF03D4
:102980001340BB60FB681A02BB68134343F0BF638C
:1029900043F40033BB60044ABB68D36000BF143704
:1029A000BD4680BC704700BF00ED00E080B400AFC2
:1029B000044BDB681B0A03F007031846BD4680BCC6
:1029C000704700BF00ED00E080B483B000AF034665
:1029D000FB7197F90730002B0BDBFB7903F01F022B
:1029E000064997F907305B09012000FA02F241F825
:1029F000232000BF0C37BD4680BC704700E100E0DB
:102A000080B483B000AF03463960FB7197F907309B
:102A1000002B0ADB3B68DAB20C4997F90730120148
:102A2000D2B20B4483F800230AE03B68DAB20849CB
:102A3000FB7903F00F03043B1201D2B20B441A7668
:102A400000BF0C37BD4680BC704700BF00E100E00E
:102A500000ED00E080B489B000AFF860B9607A6042
:102A6000FB6803F00703FB61FB69C3F10703042B59
:102A700028BF0423BB61FB690433062B02D9FB6921
:102A8000033B00E000237B614FF0FF32BB6902FA99
:102A900003F3DA43BB681A407B699A404FF0FF3179
:102AA0007B6901FA03F3D9437B680B401343184653
:102AB0002437BD4680BC704780B400AFBFF34F8F52
:102AC00000BF064BDB6803F4E0620449044B134388
:102AD000CB60BFF34F8F00BF00BFFDE700ED00E00C
:102AE0000400FA0580B582B000AF78607B68013BD6
:102AF000B3F1807F01D301230FE00A4A7B68013BD9
:102B000053600F214FF0FF30FFF77AFF054B002293
:102B10009A60044B07221A60002318460837BD4606
:102B200080BD00BF10E000E080B582B000AF7860EB
:102B30007868FFF717FF00BF0837BD4680BD80B536
:102B400086B000AF0346B9607A60FB7300237B61F7
:102B5000FFF72CFF78617A68B9687869FFF77AFF28
:102B6000024697F90F3011461846FFF749FF00BF9C
:102B70001837BD4680BD80B582B000AF0346FB71FB
:102B800097F907301846FFF71FFF00BF0837BD460B
:102B900080BD80B500AFFFF78FFF80B582B000AF7A
:102BA00078607868FFF79EFF034618460837BD46F1
:102BB00080BD000080B485B000AF78600023FB606A
:102BC0007B68002B01D1012343E07B681B681A4618
:102BD000224B1344224AA2FB03231B099A007B6861
:102BE0001A647B681F4ADA637B68022283F821201B
:102BF0007B681B681B68FB60FB6823F47F5323F032
:102C00003003FB607B685A687B689B681A437B686B
:102C1000DB681A437B681B691A437B685B691A434C
:102C20007B689B691A437B68DB691343FA6813432B
:102C3000FB607B681B68FA681A607B6800229A63F5
:102C40007B68012283F821207B68002283F8202002
:102C5000002318461437BD4680BC7047F8FFFDBFFF
:102C6000CDCCCCCC0000024080B586B000AFF8607F
:102C7000B9607A603B600023FB75FB6893F82030F5
:102C8000012B01D102234BE0FB68012283F82020B5
:102C9000FB6893F82130DBB2012B3AD1FB680222AA
:102CA00083F82120FB6800229A63FB681B681A687E
:102CB000FB681B6822F001021A603B687A68B968F9
:102CC000F86800F037F9FB68DB6A002B08D0FB6876
:102CD0001B681A68FB681B6842F00E021A600FE05E
:102CE000FB681B681A68FB681B6822F004021A6004
:102CF000FB681B681A68FB681B6842F00A021A60CE
:102D0000FB681B681A68FB681B6842F001021A60C6
:102D100005E0FB68002283F820200223FB75FB7D81
:102D200018461837BD4680BD80B584B000AF7860C6
:102D30007B68DB6B1B68FB607B681B681B68BB6088
:102D40007B681B6C04229A40FB681340002B4FD019
:102D5000BB6803F00403002B4AD07B681B681B6828
:102D600003F02003002B07D17B681B681A687B687F
:102D70001B6822F004021A607B681B68664A934253
:102D800029D07B681B68654A934222D07B681B6808
:102D9000634A93421AD07B681B68624A934212D0FE
:102DA0007B681B68604A93420AD07B681B685F4A55
:102DB000934202D14FF480030EE04FF080630BE0AA
:102DC0004FF4802308E04FF4804305E04FF4806324
:102DD00002E0402300E00423554A53607B68DB6A2D
:102DE000002B00F094807B68DB6A786898478EE05F
:102DF0007B681B6C02229A40FB681340002B56D064
:102E0000BB6803F00203002B51D07B681B681B6872
:102E100003F02003002B0BD17B681B681A687B68CA
:102E20001B6822F00A021A607B68012283F82120C5
:102E30007B681B68384A934229D07B681B68374AF5
:102E4000934222D07B681B68354A93421AD07B6834
:102E50001B68344A934212D07B681B68324A934203
:102E60000AD07B681B68314A934202D14FF40013A9
:102E70000EE04FF000730BE04FF4003308E04FF426
:102E8000005305E04FF4007302E0202300E002232A
:102E9000274A53607B68002283F820207B689B6A66
:102EA000002B34D07B689B6A786898472FE07B685A
:102EB0001B6C08229A40FB681340002B28D0BB688B
:102EC00003F00803002B23D07B681B681A687B681B
:102ED0001B6822F00E021A607B681A6C7B68DB6B41
:102EE000012101FA02F25A607B6801229A637B6831
:102EF000012283F821207B68002283F820207B6850
:102F00001B6B002B04D07B681B6B7868984700BF55
:102F100000BF1037BD4680BD080002401C000240C3
:102F20003000024044000240580002406C00024061
:102F30000000024080B485B000AFF860B9607A60EC
:102F40003B60FB681A6CFB68DB6B012101FA02F243
:102F50005A60FB681B683A685A60FB685B68102B14
:102F600008D1FB681B687A689A60FB681B68BA68BE
:102F7000DA6007E0FB681B68BA689A60FB681B6848
:102F80007A68DA6000BF1437BD4680BC7047000025
:102F900080B48BB000AF7860396000237B6200237F
:102FA0003B6269E101227B6A02FA03F3FB613B6841
:102FB0001B68FA691340BB61BA69FB699A4240F029
:102FC00058813B685B689A4A93425ED0984A934224
:102FD00075D8984A934258D0964A93426FD8964AE9
:102FE000934252D0944A934269D8944A93424CD027
:102FF000924A934263D8924A934246D0904A93426F
:103000005DD8122B2AD8122B59D801A252F823F0DE
:103010008B3000086530000877300008B9300008B0
:10302000BF300008BF300008BF300008BF300008C4
:10303000BF300008BF300008BF300008BF300008B4
:10304000BF300008BF300008BF300008BF300008A4
:10305000BF3000086D30000881300008794A934283
:1030600013D02CE03B68DB683B6229E03B68DB68FF
:1030700004333B6224E03B68DB6808333B621FE0BB
:103080003B68DB680C333B621AE03B689B68002BB3
:1030900002D104233B6213E03B689B68012B05D1FE
:1030A00008233B627B68FA691A6109E008233B62E6
:1030B0007B68FA695A6103E000233B6200E000BFCD
:1030C000BB69FF2B01D87B6801E07B6804337B611F
:1030D000BB69FF2B02D87B6A9B0002E07B6A083B3E
:1030E0009B003B617B691A680F213B6901FA03F37E
:1030F000DB431A40396A3B6901FA03F31A437B69DF
:103100001A603B685B6803F08053002B00F0B180CD
:103110004D4B9B694C4A43F0010393614A4B9B69B9
:1031200003F00103BB60BB68484A7B6A9B0802331B
:1031300052F82330FB607B6A03F003039B000F22ED
:1031400002FA03F3DB43FA681340FB607B68404AF2
:10315000934213D07B683F4A93420DD07B683E4A2E
:10316000934207D07B683D4A934201D1032306E096
:10317000042304E0022302E0012300E000237A6A32
:1031800002F0030292009340FA681343FB602F4958
:103190007B6A9B080233FA6841F823203B685B682E
:1031A00003F48013002B06D02D4B9A682C49BB6981
:1031B00013438B6006E02A4B9A68BB69DB432849BE
:1031C00013408B603B685B6803F40013002B06D050
:1031D000234BDA682249BB691343CB6006E0204BDE
:1031E000DA68BB69DB431E491340CB603B685B6810
:1031F00003F40033002B06D0194B5A681849BB69F9
:1032000013434B6006E0164B5A68BB69DB43144915
:1032100013404B603B685B6803F48033002B21D084
:103220000F4B1A680E49BB6913430B6021E000BFC6
:1032300000003210000031100000221000002110A8
:1032400000001210000011100010024000000140A8
:1032500000080140000C0140001001400014014032
:10326000000401400B4B1A68BB69DB43094913405A
:103270000B607B6A01337B623B681A687B6A22FAC7
:1032800003F3002B7FF48EAE00BF00BF2C37BD468A
:1032900080BC70470004014080B485B000AF786006
:1032A0000B467B807B689A687B881340002B02D09A
:1032B0000123FB7301E00023FB73FB7B18461437EB
:1032C000BD4680BC704780B483B000AF78600B46C9
:1032D0007B8013467B707B78002B03D07A887B68D9
:1032E0001A6103E07B881A047B681A6100BF0C37FF
:1032F000BD4680BC7047000080B586B000AF7860E6
:103300007B68002B01D1012372E27B681B6803F00C
:103310000103002B00F08780924B5B6803F00C03E5
:10332000042B0CD08F4B5B6803F00C03082B12D1DD
:103330008C4B5B6803F48033B3F5803F0BD1894B32
:103340001B6803F40033002B6CD07B685B68002B98
:1033500068D101234CE27B685B68B3F5803F06D1FE
:10336000804B1B687F4A43F4803313602EE07B68F8
:103370005B68002B0CD17B4B1B687A4A23F48033AB
:103380001360784B1B68774A23F4802313601DE099
:103390007B685B68B3F5A02F0CD1724B1B68714A38
:1033A00043F4802313606F4B1B686E4A43F48033F1
:1033B00013600BE06B4B1B686A4A23F48033136085
:1033C000684B1B68674A23F4802313607B685B6843
:1033D000002B13D0FEF706FE386108E0FEF702FE70
:1033E00002463B69D31A642B01D9032300E25D4BEB
:1033F0001B6803F40033002BF0D014E0FEF7F2FD5D
:10340000386108E0FEF7EEFD02463B69D31A642BF3
:1034100001D90323ECE1534B1B6803F40033002B69
:10342000F0D100E000BF7B681B6803F00203002BB3
:1034300063D04C4B5B6803F00C03002B0BD0494B63
:103440005B6803F00C03082B1CD1464B5B6803F44C
:103450008033002B16D1434B1B6803F00203002B73
:1034600005D07B681B69012B01D00123C0E13D4BD6
:103470001B6823F0F8027B685B69DB003949134362
:103480000B603AE07B681B69002B20D0364B012291
:103490001A60FEF7A7FD386108E0FEF7A3FD0246BB
:1034A0003B69D31A022B01D90323A1E12D4B1B68E1
:1034B00003F00203002BF0D02A4B1B6823F0F80224
:1034C0007B685B69DB00274913430B6015E0264BE3
:1034D00000221A60FEF786FD386108E0FEF782FDE3
:1034E00002463B69D31A022B01D9032380E11D4B0D
:1034F0001B6803F00203002BF0D17B681B6803F00C
:103500000803002B3AD07B689B69002B19D0174B1E
:1035100001221A60FEF766FD386108E0FEF762FDE1
:1035200002463B69D31A022B01D9032360E10D4BFC
:103530005B6A03F00203002BF0D0012000F09CFA3C
:103540001CE00A4B00221A60FEF74CFD38610FE0C8
:10355000FEF748FD02463B69D31A022B08D9032324
:1035600046E100BF00100240000042428004424297
:10357000924B5B6A03F00203002BE9D17B681B6866
:1035800003F00403002B00F0A6800023FB758B4B97
:10359000DB6903F08053002B0DD1884BDB69874A30
:1035A00043F08053D361854BDB6903F08053BB60EC
:1035B000BB680123FB75824B1B6803F48073002BEF
:1035C00018D17F4B1B687E4A43F480731360FEF76B
:1035D00009FD386108E0FEF705FD02463B69D31A94
:1035E000642B01D9032303E1754B1B6803F480733B
:1035F000002BF0D07B68DB68012B06D16F4B1B6A78
:103600006E4A43F0010313622DE07B68DB68002BF8
:103610000CD16A4B1B6A694A23F001031362674BA2
:103620001B6A664A23F0040313621CE07B68DB68B4
:10363000052B0CD1614B1B6A604A43F004031362F3
:103640005E4B1B6A5D4A43F0010313620BE05B4B68
:103650001B6A5A4A23F001031362584B1B6A574AEC
:1036600023F0040313627B68DB68002B15D0FEF7A0
:10367000B9FC38610AE0FEF7B5FC02463B69D31A93
:1036800041F28832934201D90323B1E04B4B1B6ACC
:1036900003F00203002BEED014E0FEF7A3FC386128
:1036A0000AE0FEF79FFC02463B69D31A41F28832DA
:1036B000934201D903239BE0404B1B6A03F00203B2
:1036C000002BEED1FB7D012B05D13C4BDB693B4A46
:1036D00023F08053D3617B68DB69002B00F0878087
:1036E000364B5B6803F00C03082B61D07B68DB6909
:1036F000022B46D1334B00221A60FEF773FC38616F
:1037000008E0FEF76FFC02463B69D31A022B01D991
:1037100003236DE0294B1B6803F00073002BF0D1ED
:103720007B681B6AB3F5803F08D1244B5B6823F4A8
:1037300000327B689B68214913434B601F4B5B68D9
:1037400023F474127B68196A7B685B6A0B431B491C
:1037500013434B601B4B01221A60FEF743FC386198
:1037600008E0FEF73FFC02463B69D31A022B01D961
:1037700003233DE0114B1B6803F00073002BF0D0D6
:1037800035E0104B00221A60FEF72CFC386108E08F
:10379000FEF728FC02463B69D31A022B01D903230A
:1037A00026E0064B1B6803F00073002BF0D11EE0EF
:1037B0007B68DB69012B07D1012319E0001002406F
:1037C00000700040600042420B4B5B68FB60FB688E
:1037D00003F480327B681B6A9A4206D1FB6803F4CB
:1037E00070127B685B6A9A4201D0012300E00023DB
:1037F00018461837BD4680BD0010024080B584B021
:1038000000AF786039607B68002B01D10123D0E0E4
:103810006A4B1B6803F007033A689A4210D9674B5A
:103820001B6823F0070265493B6813430B60634B39
:103830001B6803F007033A689A4201D00123B8E0FD
:103840007B681B6803F00203002B20D07B681B6899
:1038500003F00403002B05D0594B5B68584A43F42E
:10386000E06353607B681B6803F00803002B05D0FE
:10387000534B5B68524A43F460535360504B5B6850
:1038800023F0F0027B689B684D4913434B607B68D3
:103890001B6803F00103002B40D07B685B68012BA1
:1038A00007D1474B1B6803F40033002B15D10123CC
:1038B0007FE07B685B68022B07D1414B1B6803F0FC
:1038C0000073002B09D1012373E03D4B1B6803F00B
:1038D0000203002B01D101236BE0394B5B6823F01D
:1038E00003027B685B68364913434B60FEF77AFB43
:1038F000F8600AE0FEF776FB0246FB68D31A41F255
:103900008832934201D9032353E02D4B5B6803F0C7
:103910000C027B685B689B009A42EBD1274B1B68CB
:1039200003F007033A689A4210D2244B1B6823F035
:10393000070222493B6813430B60204B1B6803F0CE
:1039400007033A689A4201D0012332E07B681B6882
:1039500003F00403002B08D0194B5B6823F4E062EA
:103960007B68DB68164913434B607B681B6803F078
:103970000803002B09D0124B5B6823F460527B686C
:103980001B69DB000E4913434B6000F021F802462F
:103990000B4B5B681B0903F00F030A49CB5C22FA4F
:1039A00003F3094A1360094B1B681846FEF7D8FA5F
:1039B000002318461037BD4680BD00BF00200240DE
:1039C000001002405C4F00080400002008000020A6
:1039D00080B487B000AF0023FB600023BB600023EE
:1039E0007B6100237B6000233B611E4B5B68FB60B7
:1039F000FB6803F00C03042B02D0082B03D027E054
:103A0000194B3B6127E0FB689B0C03F00F03174A3F
:103A1000D35C7B60FB6803F48033002B10D0114B28
:103A20005B685B0C03F00103114AD35CBB607B68ED
:103A30000D4A03FB02F2BB68B2FBF3F37B6104E0C7
:103A40007B680C4A02FB03F37B617B693B6102E00C
:103A5000054B3B6100BF3B6918461C37BD4680BC27
:103A6000704700BF0010024000127A006C4F00083F
:103A70007C4F000800093D0080B485B000AF78603D
:103A80000A4B1B680A4AA2FB03235B0A7A6802FB03
:103A900003F3FB6000BFFB685A1EFA60002BF9D1EC
:103AA00000BF00BF1437BD4680BC70470400002033
:103AB000D34D621080B586B000AF786000233B61C3
:103AC0000023FB607B681B6803F00103002B7DD0A3
:103AD0000023FB754F4BDB6903F08053002B0DD1A6
:103AE0004C4BDB694B4A43F08053D361494BDB6954
:103AF00003F08053BB60BB680123FB75464B1B681A
:103B000003F48073002B18D1434B1B68424A43F4E3
:103B100080731360FEF766FA386108E0FEF762FA18
:103B200002463B69D31A642B01D903236DE03A4B5B
:103B30001B6803F48073002BF0D0364B1B6A03F430
:103B40004073FB60FB68002B2ED07B685B6803F43E
:103B50004073FA689A4227D02E4B1B6A23F44073B5
:103B6000FB602E4B01221A602C4B00221A60294A5E
:103B7000FB681362FB6803F00103002B14D0FEF70F
:103B800031FA38610AE0FEF72DFA02463B69D31A92
:103B900041F28832934201D9032336E01D4B1B6A60
:103BA00003F00203002BEED01A4B1B6A23F4407281
:103BB0007B685B68174913430B62FB7D012B05D1C2
:103BC000144BDB69134A23F08053D3617B681B6875
:103BD00003F00203002B08D00E4B5B6823F4404235
:103BE0007B689B680B4913434B607B681B6803F041
:103BF0001003002B08D0074B5B6823F480027B681E
:103C0000DB68044913434B60002318461837BD4650
:103C100080BD00BF001002400070004040044242DE
:103C200080B582B000AF78607B68002B01D10123A2
:103C300041E07B6893F83D30DBB2002B06D17B6816
:103C4000002283F83C207868FEF7A2F87B68022205
:103C500083F83D207B681A687B6804331946104658
:103C600000F0A2FA7B68012283F846207B680122DB
:103C700083F83E207B68012283F83F207B68012285
:103C800083F840207B68012283F841207B68012271
:103C900083F842207B68012283F843207B6801225D
:103CA00083F844207B68012283F845207B68012249
:103CB00083F83D20002318460837BD4680BD00002C
:103CC00080B485B000AF78607B6893F83D30DBB29C
:103CD000012B01D001233AE07B68022283F83D20CA
:103CE0007B681B68DA687B681B6842F00102DA6057
:103CF0007B681B68184A93420ED07B681B68B3F13F
:103D0000804F09D07B681B68144A934204D07B68BB
:103D10001B68134A934211D17B681B689B6803F0B0
:103D20000703FB60FB68062B10D07B681B681A68D2
:103D30007B681B6842F001021A6007E07B681B6821
:103D40001A687B681B6842F001021A60002318465B
:103D50001437BD4680BC7047002C01400004004071
:103D60000008004080B483B000AF78607B681B68B7
:103D7000DA687B681B6822F00102DA607B681B68E6
:103D80001A6A41F211131340002B0FD17B681B6894
:103D90001A6A40F244431340002B07D17B681B682A
:103DA0001A687B681B6822F001021A607B68012296
:103DB00083F83D20002318460C37BD4680BC704771
:103DC00080B582B000AF78607B681B681B6903F028
:103DD0000203022B22D17B681B68DB6803F002031D
:103DE000022B1BD17B681B686FF002021A617B6893
:103DF00001221A777B681B689B6903F00303002B81
:103E000003D0786800F0B4F905E0786800F0A7F90D
:103E1000786800F0B6F97B6800221A777B681B6827
:103E20001B6903F00403042B22D17B681B68DB6849
:103E300003F00403042B1BD17B681B686FF00402A2
:103E40001A617B6802221A777B681B689B6903F4FE
:103E50004073002B03D0786800F08AF905E0786899
:103E600000F07DF9786800F08CF97B6800221A7701
:103E70007B681B681B6903F00803082B22D17B6851
:103E80001B68DB6803F00803082B1BD17B681B68E9
:103E90006FF008021A617B6804221A777B681B683E
:103EA000DB6903F00303002B03D0786800F060F9AE
:103EB00005E0786800F053F9786800F062F97B68F3
:103EC00000221A777B681B681B6903F01003102B14
:103ED00022D17B681B68DB6803F01003102B1BD119
:103EE0007B681B686FF010021A617B6808221A77E2
:103EF0007B681B68DB6903F44073002B03D0786890
:103F000000F036F905E0786800F029F9786800F0EB
:103F100038F97B6800221A777B681B681B6903F0FD
:103F20000103012B0ED17B681B68DB6803F00103E2
:103F3000012B07D17B681B686FF001021A6178685A
:103F4000FCF7FCFE7B681B681B6903F08003802B79
:103F50000ED17B681B68DB6803F08003802B07D1E0
:103F60007B681B686FF080021A61786800F07BFA4A
:103F70007B681B681B6903F04003402B0ED17B68F4
:103F80001B68DB6803F04003402B07D17B681B688C
:103F90006FF040021A61786800F0FCF87B681B68DB
:103FA0001B6903F02003202B0ED17B681B68DB68A4
:103FB00003F02003202B07D17B681B686FF02002E1
:103FC0001A61786800F046FA00BF0837BD4680BD28
:103FD00080B584B000AF786039600023FB737B68E4
:103FE00093F83C30012B01D10223B4E07B6801221D
:103FF00083F83C207B68022283F83D207B681B68A5
:104000009B68BB60BB6823F07703BB60BB6823F48D
:104010007F43BB607B681B68BA689A603B681B681B
:10402000B3F5005F3ED0B3F5005F00F28780B3F5D3
:10403000805F00F08680B3F5805F7FD8702B1AD048
:10404000702B7BD8602B50D0602B77D8502B3CD076
:10405000502B73D8402B58D0402B6FD8302B64D0C6
:10406000302B6BD8202B60D0202B67D8002B5CD056
:10407000102B5AD062E07B6818683B6899683B68EF
:104080005A683B68DB6800F068F97B681B689B68CE
:10409000BB60BB6843F07703BB607B681B68BA6892
:1040A0009A604FE07B6818683B6899683B685A687B
:1040B0003B68DB6800F051F97B681B689A687B6895
:1040C0001B6842F480429A603CE07B6818683B6859
:1040D00059683B68DB681A4600F0C8F87B681B68C3
:1040E0005021184600F01FF92CE07B6818683B68E7
:1040F00059683B68DB681A4600F0E6F87B681B6885
:104100006021184600F00FF91CE07B6818683B68D6
:1041100059683B68DB681A4600F0A8F87B681B68A2
:104120004021184600F0FFF80CE07B681A683B68F5
:104130001B681946104600F0F6F803E00123FB73F4
:1041400000E000BF7B68012283F83D207B680022ED
:1041500083F83C20FB7B18461037BD4680BD80B4F9
:1041600083B000AF786000BF0C37BD4680BC70479D
:1041700080B483B000AF786000BF0C37BD4680BC10
:10418000704780B483B000AF786000BF0C37BD4685
:1041900080BC704780B483B000AF786000BF0C373C
:1041A000BD4680BC7047000080B485B000AF786029
:1041B00039607B681B68FB607B68294A93420BD09F
:1041C0007B68B3F1804F07D07B68264A934203D0C7
:1041D0007B68254A934208D1FB6823F07003FB609B
:1041E0003B685B68FA681343FB607B681C4A934238
:1041F0000BD07B68B3F1804F07D07B68194A93429C
:1042000003D07B68184A934208D1FB6823F44073BB
:10421000FB603B68DB68FA681343FB60FB6823F0D4
:1042200080023B685B691343FB607B68FA681A6035
:104230003B689A687B68DA623B681A687B689A62B6
:104240007B68074A934203D13B681A697B681A630B
:104250007B6801225A6100BF1437BD4680BC70479D
:10426000002C0140000400400008004080B487B0EA
:1042700000AFF860B9607A60FB681B6A7B61FB681D
:104280001B6A23F00102FB681A62FB689B693B61B1
:104290003B6923F0F0033B617B681B013A691343E0
:1042A0003B617B6923F00A037B617A69BB68134336
:1042B0007B61FB683A699A61FB687A691A6200BFA0
:1042C0001C37BD4680BC704780B487B000AFF86033
:1042D000B9607A60FB681B6A7B61FB681B6A23F02C
:1042E0001002FB681A62FB689B693B613B6923F41F
:1042F00070433B617B681B033A6913433B617B69F5
:1043000023F0A0037B61BB681B017A6913437B61C7
:10431000FB683A699A61FB687A691A6200BF1C37C8
:10432000BD4680BC704780B485B000AF786039600E
:104330007B689B68FB60FB6823F07003FB603A6856
:10434000FB68134343F00703FB607B68FA689A60DD
:1043500000BF1437BD4680BC704780B487B000AF43
:10436000F860B9607A603B60FB689B687B617B6941
:1043700023F47F437B613B681A027B681A43BB6866
:1043800013437A6913437B61FB687A699A6000BFC3
:104390001C37BD4680BC704780B485B000AF7860E4
:1043A00039607B6893F83C30012B01D1022346E051
:1043B0007B68012283F83C207B68022283F83D2041
:1043C0007B681B685B68FB607B681B689B68BB60E5
:1043D000FB6823F07003FB603B681B68FA681343BB
:1043E000FB607B681B68FA685A607B681B68164A2A
:1043F00093420ED07B681B68B3F1804F09D07B6875
:104400001B68124A934204D07B681B68104A93428F
:104410000CD1BB6823F08003BB603B685B68BA6863
:104420001343BB607B681B68BA689A607B68012293
:1044300083F83D207B68002283F83C200023184647
:104440001437BD4680BC7047002C0140000400407A
:104450000008004080B483B000AF786000BF0C3724
:10446000BD4680BC704780B483B000AF786000BFA9
:104470000C37BD4680BC70470EB46FF0004100B5EC
:104480009CB01DAB02900690079104910848094921
:1044900053F8042B0591006802A9019300F092F9EA
:1044A0000022029B1A701CB05DF804EB03B0704749
:1044B000100000200802FFFF03460244934200D18F
:1044C000704703F8011BF9E7014B1868704700BFFC
:1044D0001000002070B500260C4D0D4C641BA4107C
:1044E000A64209D100F078FC00260A4D0A4C641B54
:1044F000A410A64205D170BD55F8043B984701367B
:10450000EEE755F8043B98470136F2E7B44F000850
:10451000B44F0008B44F0008B84F00087047704708
:1045200038B50546002940D051F8043C0C1F002B3B
:10453000B8BFE41800F0DEF81C4A136833B96360B2
:1045400014602846BDE8384000F0DAB8A34208D924
:10455000206821188B4201BF19685B680918216027
:10456000EDE71A465B680BB1A342FAD911685018FF
:10457000A0420BD120680144501883421160E0D161
:1045800018685B68084410605360DAE702D90C23AE
:104590002B60D6E7206821188B4201BF19685B6841
:1045A0000918216063605460CBE738BD6C040020BB
:1045B00070B50F4E0C463168054611B900F0AAFBE4
:1045C00030602146284600F0A5FB431C03D14FF084
:1045D000FF34204670BDC41C24F00304A042F8D070
:1045E000211A284600F096FB0130F2D1EFE700BF18
:1045F000680400202DE9F843CD1C25F0030508359B
:104600000C2D38BF0C25002D064601DBA94204D92C
:104610000C2333600020BDE8F883DFF8D48000F07D
:1046200069F8D8F800301C4644BB29463046FFF7ED
:10463000BFFF431C044658D1D8F800402746002F3E
:1046400043D1002C4BD023683946304604EB030994
:1046500000F060FB814542D1216830466D1A294641
:10466000FFF7A6FF01303AD023682B442360D8F827
:1046700000305A6862BBC8F800700FE02268521B15
:1046800020D40B2A17D96119A342256018BF59609D
:10469000636808BFC8F8001062514B60304600F0F4
:1046A0002FF804F10B00231D20F00700C21A1CBFD5
:1046B0001B1AA350AFE76268A3420CBFC8F80020E2
:1046C0005A60EBE723466468AEE73C467F68B6E78E
:1046D0001A465B68A342FBD100235360DEE70C233C
:1046E0003046336000F00CF894E70560D6E700BF71
:1046F0006C0400200148FFF711BF00BF64040020D4
:104700000148FFF70CBF00BF640400202DE9F0470B
:104710001F468E688246BE420C4690460B682DD8D6
:10472000B1F90C2012F4906F26D06569096905EB88
:104730004505A3EB010905EBD5757B1C4B446D10BA
:104740009D4238BF1D46530527D52946FFF752FF26
:10475000064660B34A46216900F0FAFAA38923F4B9
:10476000906343F08003A38126614E4426603E4659
:104770006561A5EB0905A560BE4200D93E463246FB
:104780004146206800F0ACFA0020A3689B1BA360A0
:10479000236833442360BDE8F0872A4600F0E6FA38
:1047A00006460028E0D150462169FFF7B9FE0C23E8
:1047B000CAF80030A3894FF0FF3043F04003A381D3
:1047C000E9E700002DE9F04F98468B8907461B0664
:1047D0000D4614469DB010D50B6973B94021FFF703
:1047E00009FF2860286130B90C233B604FF0FF308F
:1047F0001DB0BDE8F08F40236B6100230993202397
:104800008DF8293030234FF00109CDF80C80DFF806
:1048100098818DF82A3023469A4613F8012B0AB165
:10482000252AF9D1BAEB040B0BD05B462246294668
:104830003846FFF76BFF013000F0A780099A5A4411
:1048400009929AF80030002B00F09F8000234FF06F
:10485000FF32CDE905230AF1010A049307938DF88D
:1048600053301A935446052214F8011B4E4800F0A9
:1048700061FA049AD8B9D00644BF20238DF853308A
:10488000110744BF2B238DF853309AF800302A2BA0
:1048900015D0544600204FF00A0C079A214611F813
:1048A000013B303B092B4BD9B0B1079214E0A0EB90
:1048B000080309FA03F31343A2460493D2E7039BC8
:1048C000191D1B680391002BBBBF5B4242F0020223
:1048D00007930793B8BF049223782E2B0AD16378ED
:1048E0002A2B32D1039B02341A1D1B68039243EA20
:1048F000E3730593DFF8B4A003225046217800F05B
:1049000019FA38B14022049BA0EB0A0082401343FD
:104910000134049314F8011B062225488DF8281051
:1049200000F008FA002836D0224B1BBB039B07334C
:1049300023F0070308330393099B334409936AE781
:104940000C4601200CFB0232A8E700234FF00A0CB2
:10495000194601340593204610F8012B303A092AF4
:1049600003D9002BC6D00591C4E7044601230CFBF4
:104970000121F0E703AB00932A4638460E4B04A909
:10498000AFF30080421C0646D6D1AB895B063FF5EB
:104990002DAF09982CE703AB00932A463846064B07
:1049A00004A900F07DF8EDE77E4F0008844F000871
:1049B000884F0008000000000D4700082DE9F0476F
:1049C000164698468A680B6907469342B8BF134655
:1049D000336091F843200C46DDF820900AB1013392
:1049E00033602368990642BF336802333360256819
:1049F00015F0060506D104F1190AE36832689B1A1E
:104A0000AB422BDC94F843302268003B18BF0123F3
:104A1000920630D44146384604F14302C84701307B
:104A200023D02368226903F00603042B14BF00255A
:104A300033684FF0000608BFE56804F11A0408BFA8
:104A4000ED1A54F8123C08BF25EAE5759342C4BF3D
:104A50009B1AED18B5421AD1002008E001235246F6
:104A600041463846C847013003D14FF0FF30BDE81A
:104A7000F0870135C1E73020E11881F843005A1C66
:104A800094F845102244023382F84310C2E7012310
:104A9000224641463846C8470130E6D00136D9E7BC
:104AA0002DE9FF470F7E9146782F80460C469A46A7
:104AB0000C9E01F1430207D8622F0AD8002F00F0A4
:104AC000D380582F00F0BA8004F1420684F8427077
:104AD0003AE0A7F16303152BF6D801A151F823F0B2
:104AE000394B00084D4B0008C94A0008C94A000864
:104AF000C94A0008C94A00084D4B0008C94A0008C5
:104B0000C94A0008C94A0008C94A00084F4C0008B1
:104B1000774B0008094C0008C94A0008C94A000838
:104B2000714C0008C94A0008774B0008C94A0008C0
:104B3000C94A0008114C000833681A1D1B6832600E
:104B400004F1420684F8423001239EE03368206875
:104B5000191D3160060601D51D6803E04506FBD529
:104B6000B3F90050002D03DA2D236D4284F8433051
:104B70000A23594811E021683368080653F8045B9A
:104B800002D4490648BFADB26F2F336014BF0A2369
:104B900008235148002184F843106668002EA8BFFE
:104BA0002168A660A4BF21F0040121600DB9002E88
:104BB0004BD01646B5FBF3F103FB1157C75D06F862
:104BC000017D2F46BB420D46F4D9082B0BD123683B
:104BD000DF0708D5236961689942DEBF302306F8F4
:104BE000013C06F1FF36921B22614B4621464046AE
:104BF000CDF800A003AAFFF7E1FE01304AD14FF043
:104C0000FF3004B0BDE8F087236843F02003236041
:104C10007827324884F84570236831681F0651F8B8
:104C2000045B02D45F0648BFADB23160D90744BF10
:104C300043F0200323601DB11023ABE72648E9E7CA
:104C4000236823F020032360F6E71646BDE73368A8
:104C50002568181D616930602E061B6801D5196032
:104C600002E06806FBD51980002316462361BCE7E5
:104C7000336800211A1D32601E686268304600F0F9
:104C800059F808B1801B606063682361002384F8D1
:104C90004330AAE73246494640462369D0470130AF
:104CA000ADD023689B0713D4E068039B9842B8BF3C
:104CB0001846A6E70123324649464046D047013010
:104CC0009DD00135E36803995B1AAB42F2DCEBE758
:104CD000002504F11906F5E78F4F0008A04F0008E2
:104CE000884210B501EB020402D98442234607D85A
:104CF000431EA14208D011F8012B03F8012FF8E759
:104D0000014602448A4200D110BD13F8014D02F859
:104D1000014DF7E738B50023054D044608462B60E2
:104D2000FDF7A6F8431C02D12B6803B1236038BD00
:104D300060040020034610B5C9B2024493421846ED
:104D400001D1002003E0047801338C42F6D110BD7C
:104D50000A44914200F1FF3300D1704710B511F8B9
:104D6000014B914203F8014FF9D110BD2DE9F041FB
:104D7000804615460C4621B91146BDE8F041FFF7C3
:104D800039BC2AB9FFF7CCFB00242046BDE8F081EE
:104D900000F01AF88542064602D8B5EB500FF4D859
:104DA00029464046FFF726FC07460028ECD0B542CE
:104DB0002A46214628BF3246FFF7CAFF2146404611
:104DC000FFF7AEFB3C46E0E751F8043C181F002B10
:104DD000BCBF0B58C0187047F8B500BFF8BC08BC82
:104DE0009E467047F8B500BFF8BC08BC9E467047A9
:104DF00057616B65205570210000000053554E002F
:104E00004D4F4E005448550057454E0054484500FC
:104E10004652490053415400416C61726D000000DC
:104E2000486F7572203A2025303264004D696E75E6
:104E30007465203A2025303264000000416C6172B4
:104E40006D2053657474696E670000005361766568
:104E50006400000044617465000000004D6F6E74D2
:104E600068203A2025303264000000004461792037
:104E70003A202530326400005765656B2044617923
:104E8000203A2053554E00005765656B20446179E8
:104E9000203A204D4F4E00005765656B20446179E4
:104EA000203A2054554500005765656B20446179D0
:104EB000203A2057454E00005765656B20446179C4
:104EC000203A2054484500005765656B20446179BD
:104ED000203A2046524900005765656B20446179AD
:104EE000203A205341540000446174652053657496
:104EF00074696E670000000054696D650000000071
:104F00005365636F6E64203A2025303264000000E0
:104F100054696D652053657474696E670000000004
:104F200052657365742053657474696E677300000D
:104F300052657475726E0000253032643A25303245
:104F4000643A2530326400002530326C64256300F9
:104F5000253032642F25303264000000000000004C
:104F6000000000000102030406070809020304050B
:104F7000060708090A0B0C0D0E0F10100102232D55
:104F8000302B2000686C4C00656667454647003052
:104F9000313233343536373839414243444546009F
:104FA000303132333435363738396162636465669F
:044FB00000000000FD
:044FB40035010008BB
:044FB80011010008DB
:104FBC00FFFFFFFF00127A0010000000010000004C
:104FCC0014000020000000002803002090030020A3
:104FDC00F8030020000000000000000000000000AA
:104FEC0000000000000000000000000000000000B5
:104FFC0000000000000000000000000000000000A5
:10500C000000000000000000000000000000000094
:0400000508001EE9E8
:00000001FF
